:020000040800F2
:10000000F81700202902000843200008771E000886
:1000100041200008290700089D2300080000000077
:100020000000000000000000000000009101000836
:100030003B0A000800000000D50100081521000857
:10004000430200084302000843020008430200087C
:10005000430200084302000843020008430200086C
:10006000430200084302000843020008050A000892
:10007000430200084302000843020008430200084C
:100080004302000843020008C905000843020008B3
:10009000430200084302000843020008430200082C
:1000A000430200084302000843020008430200081C
:1000B000430200084302000843020008430200080C
:1000C00043020008430200084302000843020008FC
:1000D00043020008430200084302000843020008EC
:1000E00043020008430200084302000800F002F83F
:1000F00000F03FF80AA090E8000C82448344AAF183
:100100000107DA4501D100F034F8AFF2090EBAE880
:100110000F0013F0010F18BFFB1A43F0010318473B
:10012000A02F0000C02F0000103A24BF78C878C16B
:10013000FAD8520724BF30C830C144BF04680C60ED
:10014000704700000023002400250026103A28BF35
:1001500078C1FBD8520728BF30C148BF0B60704739
:10016000642900F0C980002070471FB51FBD10B57D
:1001700010BD00F0EEF91146FFF7F7FF02F020F98D
:1001800000F00CFA03B4FFF7F2FF03BC00F014FA1E
:10019000224B19680868B0E8F00F80F30988BFF3B4
:1001A0006F8F4FF0000080F311884EF00D0E7047F6
:1001B0000000000006480068006880F3088862B606
:1001C00061B6BFF34F8FBFF36F8F00DF00BF00BF7B
:1001D00008ED00E0EFF30980BFF36F8F0F4B1A6853
:1001E00020E9F00F106008B54FF0500080F311883F
:1001F000BFF34F8FBFF36F8F02F0D2FC4FF00000C0
:1002000080F31188BDE8084019680868B0E8F00F6D
:1002100080F30988BFF36F8F704700BF2C00002068
:10022000EFF3058070470000094880470948004700
:10023000FEE7FEE7FEE7FEE7FEE7FEE7FEE7FEE796
:10024000FEE7FEE704480549054A064B70470000F3
:10025000A5210008ED000008F8110020F817002083
:10026000F8130020F81300200FB41CB5074B06AAA2
:100270007B4469460090059800F053F900206946D8
:1002800000F062F91CBC5DF814FB0000D502000010
:100290002DE9F0410E460446002020622046E16828
:1002A000884730B3252805D0D4E901219047206A3A
:1002B000401CF2E7E168204600278847050018D077
:1002C000A5F14100192802D820354FF400673246C5
:1002D000294620462760FFF743FF40B1012804D09C
:1002E000F61D26F007060836D8E7361DD6E728465D
:1002F000DAE7206ABDE8F0812DE9F04106460024E6
:1003000010687529314616A510D0AFF3008000287B
:1003100002DA404213A507E031688A0701D512A529
:1003200002E0490704D511A5012401E0AFF30080E4
:1003300000210A2206F1240709E0B0FBF2FCB0FB21
:10034000F2F302FB1C00303078541846491C002898
:10035000F3D123462A463046BDE8F04100F083B889
:10036000000000002D0000002B0000002000000015
:1003700010B5431C02E010F8011B71B18107FAD1DE
:100380004FF0013202C88C1A8C4314EAC211F9D022
:10039000C01A0A0603D0C01E10BDC01A10BD0A0440
:1003A00001D0801E10BD0902FCD0401E10BD10B54A
:1003B000203AC0F00B80B1E81850203AA0E818505D
:1003C000B1E81850A0E81850BFF4F5AF5FEA027C1E
:1003D00024BFB1E81850A0E8185044BF18C918C08D
:1003E000BDE810405FEA827C24BF51F8043B40F82E
:1003F000043B08BF7047D20728BF31F8023B48BF13
:1004000011F8012B28BF20F8023B48BF00F8012B50
:1004100070474FF0000200B51346944696462039C7
:1004200022BFA0E80C50A0E80C50B1F12001BFF4AD
:10043000F7AF090728BFA0E80C5048BF0CC05DF813
:1004400004EB890028BF40F8042B08BF704748BF61
:1004500020F8022B11F0804F18BF00F8012B7047D5
:100460007047704770472DE9F0470D469946924610
:10047000044600F124080168880604D5E06921F0EB
:100480001001216000E00120A84201DD471B00E0CF
:100490000027A1697A1902EB0900081AA0612078E7
:1004A000C00602D42046AFF30080002608E0D4E95D
:1004B00001211AF806009047206A401C761C206231
:1004C0004E45F4DB2078C0060AD52046AFF3008005
:1004D00006E0D4E9012130209047206A401C2062C8
:1004E000381EA7F10107F4DC07E0D4E9012118F870
:1004F00005009047206A401C2062281EA5F10105D6
:10050000F3DC2046AFF300802078000602D50220FD
:10051000BDE8F0870120FBE701694A1C0261087809
:10052000704700B58FB0CDE9013100210591054933
:100530007944CDE9031011466846FFF7A9FE0FB0D4
:1005400000BD0000E5FFFFFF0A6802F8010B0A602A
:100550007047754600F02CF8AE46050069465346D4
:1005600020F00700854618B020B5FFF76BFEBDE808
:1005700020404FF000064FF000074FF000084FF00A
:10058000000B21F00701AC46ACE8C009ACE8C0099B
:10059000ACE8C009ACE8C0098D46704710B5044608
:1005A000AFF300802046BDE81040FFF7EBBD000030
:1005B000004870479411002001491820ABBEFEE7A7
:1005C000260002007047000010B5044800F0BBFA96
:1005D000BDE81040024800F0B6BA0000200100203B
:1005E0005001002070B5044600688168C943C907FE
:1005F00017D1816821F00101816000F0C7FE054636
:100600000AE000BF00F0C2FE401B022804D92068A7
:100610008068C043C00706D020688068C043C00718
:10062000F0D0002070BDA06A40F01000A062E06A27
:1006300040F00100E062012070BD10B50146406A43
:10064000826A12F0500F05D0006A026BBDE81040BC
:1006500008461047816A41F4007181620168896827
:10066000C1F3424107290CD1017B51B9816A21F4C0
:1006700080718162816AC90403D4816A41F00101F9
:10068000816200F05DFA10BD10B5406A816A41F0E8
:1006900040018162C16A41F00401C16200F052FA76
:1006A00010BD10B5406A00F04CFA10BDF8B5002638
:1006B0000446009600688168C943C9072DD0816847
:1006C00041F001018160164816490068B0FBF1F065
:1006D00000E0401E00900028FBD100F057FE0546C8
:1006E00016E000BF00F052FE401B022810D920681F
:1006F0008068C043C0070BD0A06A40F01000A06221
:10070000E06A40F00100E06284F824600120F8BD56
:1007100020688068C043C007E4D10020F8BD000015
:100720002800002040420F00FEE701F04FBA0368A6
:1007300000225A620068426A8A42FCD370474068CD
:10074000FFF7F5BF4068FFF7F2BF30B40129029C04
:1007500002D0022903D005E044F2506101E042F6E4
:10076000E0614180C3600481426030BC1046FFF705
:10077000DCBF30B40129029C02D0022903D005E07D
:1007800044F2506101E042F6E0614180C3600481BF
:10079000426030BC1046FFF7C8BF2DE9F041074664
:1007A000002500F0A6F800240126384600F04DF898
:1007B0000028FAD028213846FFF7C1FF384600F05C
:1007C00044F880B1C4F1070106FA01F02843C5B22C
:1007D000384600F03AF80028FAD1641C082CE4DB13
:1007E0002846BDE8F081C4F1070006FA00F0854311
:1007F000EEE72DE9F0410746002500F087F80024D8
:100800000126384600F025F80028FAD0282138467D
:10081000FFF798FF384600F01CF880B1C4F10701DB
:1008200006FA01F02843C5B2384600F012F8002855
:10083000FAD1641C082CE4DB2846BDE8F081C4F141
:10084000070006FA00F08543EEE70189C06800F072
:1008500093BD0189C06800F08FBD2DE9F0410446C9
:1008600000202070204600F05EF820702046FFF740
:1008700094FF07462046FFF790FF2046FFF78DFFC5
:1008800006462046FFF789FF2046FFF786FF05460C
:10089000304602F085FB2061384602F081FB606142
:1008A0002846BDE8F0812DE9F04104460020207083
:1008B000204600F06FF820702046FFF79AFF0746A9
:1008C0002046FFF796FF2046FFF793FF0646204697
:1008D000FFF78FFF2046FFF78CFF0546304602F0FA
:1008E0005FFB2061384602F05BFB60612846BDE893
:1008F000F0811FB5002100910191029103910189BE
:100900000091C068694600F047FC1FBD1FB500217B
:10091000009101910291039101890091C06869469B
:1009200000F03AFC1FBD7FB50025044600950195F7
:100930000295039500890090012001900220039008
:100940002E466946E06800F027FC21893246E068BF
:1009500000F017FD61882046FFF7F1FE2046FFF703
:10096000C8FF32212046FFF7EAFE2046FFF76DFF61
:1009700040B950212046FFF7E2FE2046FFF765FF11
:1009800000B101252046FFF760FF0028FAD104B02E
:10099000284670BD7FB50025044600950195029557
:1009A00003950089009001200190022003902E46BB
:1009B0006946E06800F0F0FB21893246E06800F00B
:1009C000E0FC61882046FFF7BDFE2046FFF79EFF52
:1009D00032212046FFF7B6FE2046FFF73AFF40B926
:1009E00050212046FFF7AEFE2046FFF732FF00B150
:1009F00001252046FFF72DFF0028FAD104B0284634
:100A000070BD0000014800F0B7BA00000C020020E1
:100A100030B590F840500124AC40C56B6C60046860
:100A200063604368102B036803D099600068C2605C
:100A300030BD9A600068C16030BD704772B6FEE795
:100A400070470000F8B50024009490F82420254653
:100A5000012A12D0012280F824204A681F23072A85
:100A60000DD20668776B521E02EB820293409F43C1
:100A70000B6893401F43776319E00220F8BD0668B6
:100A80000D2A0AD2376BD21F02EB820293409F439A
:100A90000B6893401F43376309E0F76A0D3A02EB96
:100AA000820293409F430B6893401F43F7620A689A
:100AB000072306680A2A0AD3F7680A3A02EB4202B9
:100AC00093409F438B6893401F43F76008E037696A
:100AD00002EB420293409F438B6893401F43376170
:100AE0000A68102A01D0112A20D1124B02689A42BA
:100AF00017D193681B0219D4936843F400039360E1
:100B00000968102912D10C490C4A0968B1FBF2F1AD
:100B100001EB8101490000E0491E00910029FBD151
:100B200004E0816A41F020018162012480F82450B0
:100B30002046F8BD002401402800002040420F005C
:100B400070477047704710B50446006841688906D1
:100B500026D50168890723D5A16AC90603D4A16AED
:100B600041F40071A1628168C1F34241072910D1AB
:100B7000217B71B9416821F020014160A06A20F415
:100B80008070A062A06AC00403D4A06A40F0010093
:100B9000A0622046FFF7D4FF21686FF012000860C2
:100BA0002068416809062ED5016849072BD5A16A3E
:100BB000C90603D4A16A41F40051A1628168C1F35E
:100BC0000231072909D04168490515D48168C1F36C
:100BD0004241072910D1217B71B9416821F0800180
:100BE0004160A06A20F48050A062A06AC00503D4CE
:100BF000A06A40F00100A0622046FFF721FF2168B3
:100C00006FF00C0008602068416849060DD5006847
:100C1000C0070AD0A06A40F48030A062204600F0ED
:100C200093F821686FF00100086010BD2DE9F041D4
:100C30004FF0000704003D467ED0A06A002628B988
:100C4000E66284F82460204600F080F82046FFF732
:100C5000C9FCA16AC90600D420B1A06A40F0100006
:100C6000A06269E0A16A21F4885141F00201A16209
:100C70006268E169237B0A4347EA43010A43A168AA
:100C80004FF48077B94209D0012907D05FF0000105
:100C900094F814C0BCF1010F02D00AE03946F7E71E
:100CA000F3B1A36A43F02003A362E36A43F00103B4
:100CB000E3622368D3F804C02CF4694C4CEA010CBD
:100CC000C3F804C021688B68DFF870C003EA0C0326
:100CD00013438B60A168B9420BD0012909D00CE005
:100CE000DFF85CC0A3690CEB43330B4343F40061B2
:100CF000DFE7218A0D05A5F580152168CB6A23F46D
:100D000070032B43CB62216889680E4B19409142D6
:100D100008D1E662A16A21F0020141F00101A1625D
:100D2000BDE8F081A06A20F0020040F01000A0624F
:100D3000E06A40F00100E0620120F1E7FDF7E1FF29
:100D400000E0FFFFFE0E1FFF704700002DE9F0419D
:100D500086B00025009501950295039506463C4B0B
:100D600001683C4803243C4ADFF8F0808027994220
:100D70003BD1816941F400718161816901F40071A5
:100D80000491816941F004018161816901F00401EC
:100D90000491816941F0080181618069694600F030
:100DA000080004901320CDE90004104600F0F4F987
:100DB0000220CDE900046946404600F0EDF9294CD7
:100DC0002748C4E900058015A560C4E903708000C8
:100DD00060612020C4E90605204600F077F908B1DB
:100DE000FFF72CFE3462666227E01F4B99422CD13C
:100DF000816941F480618161816901F480610491BC
:100E0000816941F004018161816901F0040104916B
:100E1000816941F0080181618069CDE9007400F0C9
:100E2000080004906946104600F0B6F90120CDE9AB
:100E300000046946404600F0AFF900220521122067
:100E400000F016FB122000F005FB06B0BDE8F081B3
:100E5000002401400010024000080140000C014045
:100E6000080002400C020020002801402DE9F04754
:100E7000894604463B4900683B4F0E1D9046884218
:100E800001D0B84207D1306810F4702F03D001258B
:100E90002846BDE8F08794F8240001280CD00120F2
:100EA00084F824002046FFF701FC05004FF0000005
:100EB00004D084F82400EBE70220EAE7A16A40F6B8
:100EC0000162914341F48071A1622168B94218D155
:100ED000326812F4702F14D0A16A41F48011A1621B
:100EE0003168490505D5A16A21F4005141F48051CA
:100EF000A162A16AC9040AD5E16A21F00601E16292
:100F000006E0A26A22F48012A2624968E9E7E06280
:100F100084F82400216A15488862216A1448C8624E
:100F2000216A1448086321686FF002000860206895
:100F3000816841F480718160216843464A464C31A2
:100F4000206A00F0F1F820688168C1F34241072966
:100F5000816803D041F48011816099E741F4A001D8
:100F6000FAE7000000240140002801403B06000889
:100F7000A3060008890600082DE9F05FC16B0C6824
:100F800001680B68D0F840C0042202FA0CF2494D07
:100F9000DFF824A1494E4A4FDFF828B1DFF828E1F5
:100FA00022422CD05A072AD50A68920603D40A682E
:100FB00022F004020A600168A94201D1042219E06A
:100FC000514501D1402215E0B14202D14FF4806277
:100FD00010E0B94202D14FF480420BE0594502D1F2
:100FE0004FF4802206E0714502D14FF4800201E007
:100FF0004FF080622F4908394A60C16A3BE04FF0E8
:10100000020808FA0CF818EA040F4FF000094FF034
:10101000010235D05FEA837832D50B689B0605D490
:101020000B6823F00A030B6080F821200168A942B5
:1010300001D1022219E0514501D1202215E0B1422F
:1010400002D14FF4007210E0B94202D14FF40052C5
:101050000BE0594502D14FF4003206E0714502D150
:101060004FF4001201E04FF00072124908394A6053
:1010700080F82090816A00291AD0BDE8F05F084707
:10108000082505FA0CF5254212D01B0710D50B6870
:1010900023F00E030B6090F84010C36B02FA01F1CD
:1010A0005960826380F8212080F82090016BE2E78C
:1010B000BDE8F09F080002401C00024030000240E2
:1010C00044000240580002406C00024030B528B392
:1010D00008C8134914221944B1FBF2F18900C16315
:1010E00010498163022141771A6843F6F0718A43FF
:1010F000D0E900142143D0E902452C43214304697F
:10110000214344692143846921431143196000212B
:101110004163012242770177084630BD012030BD8E
:10112000F8FFFDBF0000024070B5044690F82000B3
:10113000002501280CD0012084F8200094F82160BB
:101140000020012E06D084F820000225284670BD1C
:10115000022070BD022684F82160A0632068066822
:1011600026F0010606602046FFF752FCE06A0028E0
:101170002068016802D041F00E0106E021F0040170
:1011800001602068016841F00A010160206801687F
:1011900041F001010160D9E72DE9F84FDFF8B8917E
:1011A000002409F1040A0AF1040B23460F270BF16E
:1011B000040EC9E00125A5402A40AA427DD1674E10
:1011C000D1F804C0ACEB0608B44532D014DCBCF155
:1011D000030F3AD009DCBCF1000F2AD0BCF1010F9B
:1011E0001CD0BCF1020F31D11DE0BCF1110F17D0A2
:1011F000BCF1120F2AD119E0B8F5881F19D006DC0E
:10120000B8F5803F15D0B8F5801F1FD111E0B8F5B3
:10121000001F0ED0B8F5041F18D10AE0CB6815E006
:10122000CB681B1D12E0CB6808330FE0CB680C3392
:101230000CE08B682BB1012B4FF0080303D0456104
:1012400004E0042302E0056100E00023FF2A01D846
:10125000064601E000F104064FEA840501D9A5F134
:101260002005D6F8008007FA05FC28EA0C0803FAE6
:1012700005F548EA0508C6F800804D68ED0062D51E
:10128000374DAE6946F00106AE61AD6924F0030644
:1012900005F001050095334D06EB050CDCF8085010
:1012A000A607360F07FA06F825EA0805DFF8B88022
:1012B000404503D14FF0000817E044E0DFF8AC8070
:1012C000404502D14FF001080FE0DFF8A48040450F
:1012D00002D14FF0020808E0DFF89880404502D1C3
:1012E0004FF0030801E04FF0040808FA06F848EA56
:1012F0000508CCF808804D68D9F80060ED034D462C
:1013000001D5164300E096432E604D68DAF8006080
:10131000AD03554601D5164300E096432E604D6857
:10132000DBF80060ED025D4601D5164300E0964310
:101330002E604D68DEF80060AD02754601D516439B
:1013400000E096432E60641C0D682A46E5407FF459
:1013500031AFBDE8F88F000000040140000011101B
:10136000001002400000014000080140000C014054
:1013700000100140001401408068084000D00120A6
:1013800070470AB1016170470904FBE701488068B2
:10139000704700001C000020024881680278114458
:1013A000816070471C000020074810B5016841F0BB
:1013B00010010160032000F07BF80F2000F006F818
:1013C00000F024F8002010BD0020024070B50D4D43
:1013D00004464FF47A712878B1FBF0F00A490968A5
:1013E000B1FBF0F000F068FB48B9102C07D20022E6
:1013F0002146501E00F03CF800206C6070BD0120BA
:1014000070BD00001C000020280000200F4808B517
:10141000816941F001018161816901F0010100915F
:10142000C16941F08051C161C069002200F0805063
:1014300000900F21901E00F01BF80548416821F034
:10144000E06141F00071416008BD00000010024001
:1014500000000140002809DB00F01F02012191403B
:101460004009800000F1E020C0F800117047000042
:10147000F0B40E4B1B680C46C3F30223C3F10705FF
:10148000042D00D90425191D072901D2002300E0ED
:10149000DB1E012606FA05F1491E214099409E40B7
:1014A000761E16403143F0BC00F079BF0CED00E031
:1014B000064900F0070208684FF6FF03184040EAAB
:1014C0000220034A10430860704700000CED00E062
:1014D0000000FA052DE9F84305460078354CC007B1
:1014E00054D0E0690026C00008D4E06940F0805084
:1014F000E061E069012600F0805000902E4801680C
:10150000C90512D40168804641F480710160FFF77B
:101510003DFF074605E000BFFFF738FFC01B64280A
:1015200023D8D8F80000C005F6D5206A10F4407022
:1015300021D0A98801F4407181421CD0206A1F4942
:10154000012220F440700A6000220A602062C00775
:1015500011D0FFF71BFF074641F2883808E000BFB3
:10156000FFF714FFC11B414502D90320BDE8F883F2
:10157000206A8007F4D5206A696820F44070084327
:1015800020621EB1E06920F08050E0612878800779
:1015900005D56068A96820F4404008436060287859
:1015A000C00605D56068E96820F4800008436060E3
:1015B0000020DBE70010024000700040400442427F
:1015C0002DE9F0470F46050061D0434E306800F02A
:1015D0000700B84209D2306820F007003843306075
:1015E000306800F00700B84251D128683B4C8107B1
:1015F00012D5400703D5606840F4E0606060287849
:10160000000703D5606840F4605060606068A968B6
:1016100020F0F000084360602878C00728D0686890
:10162000012810D02168022810D0890700292EDA5D
:10163000616821F0030101436160FFF7A7FE804666
:1016400041F288390DE021688903EFE78901EDE770
:10165000FFF79CFEA0EB0801494502D90320BDE835
:10166000F0876068696800F00C00B0EB810FEFD183
:10167000306800F00700B8420BD9306820F007004E
:1016800038433060306800F00700B84201D00120D4
:10169000E5E72878400705D56068E96820F4E06050
:1016A000084360602878000706D56068296920F43F
:1016B000605040EAC100606000F038F86168084A94
:1016C000C1F30311515CC840064908600648006830
:1016D000FFF77CFE0020C2E700200240001002401D
:1016E0008C30000828000020200000200448054914
:1016F00000684968044AC1F30221515CC840704740
:1017000028000020001002409C30000804480549D1
:1017100000684968044AC1F3C221515CC84070475F
:1017200028000020001002409C30000812A185B063
:101730000FC98DE80F0014A0144A00680490516886
:10174000134801F00C03042B10D0082B0ED1C1F369
:101750008343C9031DF803000AD5516804AAC1F3E5
:101760004041515C0A4A5043B0FBF1F005B070476C
:1017700008494843FAE70000020304050607080980
:101780000A0B0C0D0E0F1010010200000010024099
:1017900000127A0000093D002DE9F84F040070D0D6
:1017A0002078C04DC00749D06868C0F38100012887
:1017B00007D06868C0F38100022809D16868C003B7
:1017C00006D52868800339D560680028E7D035E061
:1017D0006068B0F5803F0BD010B1B0F5A02F11D0EC
:1017E000286820F480302860286820F4802002E0F7
:1017F000286840F480302860606890B1FFF7C6FD2B
:1018000006460AE0286840F480202860F0E700BF20
:10181000FFF7BCFD801B642873D828688003F7D5C8
:101820000CE0FFF7B3FD064605E000BFFFF7AEFD95
:10183000801B6428F0D828688003F7D420789A4E5B
:1018400080074FF001094FF0000839D5686810F0A3
:101850000C0F07D06868C0F38100022809D16868BE
:10186000C00306D42868800714D52069012808D150
:1018700010E02069B0B1C6F80090FFF787FD074679
:1018800005E00AE1FFF782FDC01B0228C4D82868E2
:101890008007F7D52868616920F0F80040EAC100A8
:1018A00028600DE0C6F80080FFF770FD074604E0F1
:1018B000FFF76CFDC01B022823D828688007F7D4E7
:1018C000207800072CD57948A169D9B1C0F80090DB
:1018D000FFF75CFD074604E0FFF758FDC01B022838
:1018E0000FD8686A8007F7D571484FF4FA5100683D
:1018F000B0FBF1F0009000BF0098411E0091FAD2B9
:101900000EE080E0C0F80080FFF740FD074604E0ED
:10191000FFF73CFDC01B022875D8686A8007F7D422
:101920002078400760D5E8690027C00008D4E8693E
:1019300040F08050E861E869012700F08050009095
:101940005C480168C90513D40168834641F480717D
:101950000160FFF71BFD824606E000BFFFF716FDA2
:10196000A0EB0A0064284ED8DBF80000C005F5D5CE
:10197000E06801280AD008B1052813D0286A20F0B1
:1019800001002862286A20F0040002E0286A40F082
:1019900001002862E06841F2883B98B1FFF7F6FC4D
:1019A00082460BE0286A40F004002862EEE700BFA0
:1019B000FFF7ECFCA0EB0A0159455AD8286A8007CA
:1019C000F6D50CE0FFF7E2FC824605E0FFF7DEFC0F
:1019D000A0EB0A0159454CD8286A8007F6D41FB1FC
:1019E000E86920F08050E861E06988B36968C1F374
:1019F0008101022944D00228C6F8608004D0FFF794
:101A0000C5FC044638E034E0FFF7C0FC074604E0BC
:101A1000FFF7BCFCC01B02282BD828688001F7D434
:101A2000206AB0F5803F05D16868A16820F40030D5
:101A300008436860D4E908010843696821F4741117
:101A400008436860C6F86090FFF7A0FC044606E013
:101A500025E000BFFFF79AFC001B022809D8286880
:101A60008001F7D51BE000BFFFF790FC001B0228A8
:101A700002D90320BDE8F88F28688001F4D40EE075
:101A80000128F7D06868226A00F48031914204D1BD
:101A9000616A00F47010884201D00120EAE700205A
:101AA000E8E7000000100240000042428004424289
:101AB000280000200070004010B5401EB0F1807F6B
:101AC00001D3012010BD4FF0E02460610F216017A9
:101AD00000F065FC0020A06107202061002010BDFF
:101AE00070B590F83C20012A26D0012480F83C40B3
:101AF000022280F83D2003685A689D6822F0700633
:101B00000A6832435A600D4B02689A4208D0B2F11B
:101B1000804F05D00A4B9A4202D00A4B9A4204D118
:101B2000496825F080031943916080F83D40002109
:101B300080F83C10084670BD022070BD002C0140AA
:101B4000000400400008004010B5040003D094F8E1
:101B50003D0010B107E0012010BD002084F83C00DA
:101B6000204600F01FF8022084F83D00211D206867
:101B700000F01AFB012084F8460084F83E0084F847
:101B80003F0084F8400084F8410084F8420084F863
:101B9000430084F8440084F8450084F83D000020A8
:101BA00010BD000008B500680649884208D1064803
:101BB000C16941F00401C161C06900F004000090F6
:101BC00008BD0000000800400010024090F83D10E1
:101BD000012901D001207047022180F83D100068E2
:101BE0000B49884208D0B0F1804F05D0094988429E
:101BF00002D00949884204D1816801F00701062911
:101C000003D0016841F0010101600020704700002D
:101C1000002C0140000400400008004070B504465C
:101C200090F83C00012817D0012584F83C50022090
:101C300084F83D002068826822F0770222F47F4217
:101C400082600868502830D00DDC20284DD005DC9B
:101C500098B310283BD148E0022070BD302844D012
:101C6000402834D139E0602828D0702806D0B0F55B
:101C7000805F2CD0B0F5005F29D10AE0CB68D1E9B4
:101C80000121206800F0C6FA2068816841F07701E0
:101C900009E0CB68D1E90121206800F0BBFA206897
:101CA000816841F48041816011E0CA684968206818
:101CB00000F0C2FA5021206807E016E0CA684968BF
:101CC000206800F0CAFA6021206800F0ADFA84F8BC
:101CD0003D50002084F83C0070BDCA684968206807
:101CE00000F0AAFA40212068EFE72268014610467A
:101CF000EBE770B5040004D094F83D00002510B166
:101D000006E0012070BD84F83C50204600F022F827
:101D1000242084F83D002068C16821F40051C1608E
:101D2000204600F0ADFA2068016921F4904101617C
:101D30002068416921F02A0141612068C16841F4AD
:101D40000051C1602564202084F83D0084F83E00E5
:101D5000002070BD30B585B0002400940194029439
:101D6000039400681449884223D11448C16941F49E
:101D70000031C161C16901F400310491816941F010
:101D80000401816180690E4D00F00400049004207C
:101D90000090022001900320039069462846FFF737
:101DA000FBF90820CDE90004694628460294FFF7B4
:101DB000F3F905B030BD00000044004000100240BF
:101DC000000801402DE9F843044690F83D001F4605
:101DD00016460D4620284CD1C5B1BEB194F83C0042
:101DE000012846D0012084F83C004FF00008C4F8D8
:101DF0004080212084F83D00FFF7C8FAA684814680
:101E0000E684A068B0F5805F03D004E00120BDE85F
:101E1000F883206928B12E465FF0000584F83C80E5
:101E20000EE00026FAE78021204600F085FAA0B9EE
:101E3000AEB116F8010B21684860E08C401EE084CA
:101E4000E08C4B464FF0000200970028EBD14FF09A
:101E50004001204600F070FA30B10320D7E735F892
:101E6000020BC0F30800E6E7202084F83D000020C4
:101E7000CDE70220CBE7FEE7FEB500242048009422
:101E800001941E49029401608915816004730475F0
:101E9000042505614FF460214460C161FEF7C6FE70
:101EA00008B172B6FEE70126CDE90046694614483E
:101EB0000294FEF7C7FD08B172B6FEE70220CDE935
:101EC000006069460E48FEF7BDFD08B172B6FEE738
:101ED0000320CDE9005069460948FEF7B3FD08B17B
:101EE00072B6FEE70920CDE9000569460448FEF711
:101EF000A9FD002801D072B6FEE7FEBD0024014016
:101F0000200100203EB50024164800940194144995
:101F100002940160891581600473047502250561CE
:101F20004FF460214460C161FEF780FE08B172B6D3
:101F3000FEE7072000900120CDE901046946094829
:101F4000FEF780FD08B172B6FEE7694605480195C7
:101F5000FEF778FD002801D072B6FEE73EBD000016
:101F6000002801405001002030B585B000241848F9
:101F70000094019402940394816941F020018161ED
:101F8000816901F020010491816941F004018161BE
:101F9000816901F004010491816941F008018161C6
:101FA00080690C4D00F00800049000226021284652
:101FB000FFF7E7F9602000900120CDE9010402203D
:101FC000039069462846FFF7E7F805B030BD0000EA
:101FD000001002400008014010B586B000241748E8
:101FE00000940194029403940494134905940160AD
:101FF0004721C0E901144FF6FE71C0E90314846162
:10200000FFF7A2FD08B172B6FEE74FF480500090D2
:1020100069460A48FFF702FE08B172B6FEE704946B
:1020200004A906480594FFF75BFD002801D072B6AD
:10203000FEE706B010BD000000080040800100204F
:10204000FEE7FEE786B0204DDFF88080A5F114049E
:1020500008F118074FF47A791C4804221A49943081
:10206000FEF704FF1948FEF7F8FB4646D8F81000C3
:1020700000F076FF2070706900F072FF6070134806
:102080001830FEF710FC386900F04EFF064660601D
:10209000786900F049FFA0600146E888AA886B884B
:1020A000B5F800C00590CDF808C0CDE90332CDE900
:1020B000006106486378227805A13030FEF7D4F835
:1020C000484600F0EFF9C7E7140000208C0000201C
:1020D000256420256420256420256420256420258E
:1020E00064202564202564004FF4FA6465100848D4
:1020F000FEF73EF9064982B2642301F58670FFF7C8
:1021000061FE204600F0E8FC284600F0CBF9EEE73F
:10211000BC00002010B5FFF73FF900F031FE0128A8
:1021200003D0BDE8104000F0BDBD10BD30B593B088
:1021300028216846FEF76DF914210AA8FEF769F90F
:10214000002501200F9510951195010412958DE839
:10215000230004904FF4E010CDE908100224079406
:102160006846FFF719FB08B172B6FEE70AA90F200F
:1021700081E831004FF48060CDE90D0502210AA805
:10218000FFF71EFA08B172B6FEE74FF40040119057
:102190000F940FA8FFF79EF9002801D072B6FEE752
:1021A00013B030BD70470000F0B50268164B174CF5
:1021B000174D4FF08047984205D0B84203D0A04257
:1021C00001D0A84203D122F070064A6832439842F7
:1021D00005D0B84203D0A04201D0A84203D122F4D6
:1021E0004074CA6822434C6922F080022243026094
:1021F0008A68C2620A688262984201D109690163F1
:1022000001214161F0BD0000002C014000040040AC
:102210000008004010B5846842EA032224F47F4499
:102220000A432243826010BD826822F070020A4392
:1022300042F007018160704710B5036A046A24F018
:1022400001040462846924F0F00444EA021423F0D7
:102250000A020A438461026210BD10B5036A23F0CA
:10226000100303628369046A23F4704343EA023271
:1022700024F0A00343EA01118261016210BD000055
:1022800070B5044600680169E26821F440511143C9
:1022900001612169A0680843616908432168CA682F
:1022A00041F20C639A430243CA6020684169A26903
:1022B00021F44071114341611E492068884202D1D6
:1022C000FFF724FA01E0FFF711FA00EBC00101EB80
:1022D0000012606864218000B2FBF0F3B3FBF1F3FD
:1022E0006FF018067343B2FBF0F5B2FBF0F605EBA6
:1022F0008305322303EB0515B5FBF1F5B6FBF1F6CB
:1023000005F0F00505EB0615B2FBF0F6B2FBF0F0B8
:10231000B0FBF1F06FF01802504306EB800003EBC6
:102320000010B0FBF1F0216800F00F002844886035
:1023300070BD0000003801402DE9F0419846174675
:102340000E460446069D1DE0681C1BD02DB1FFF70C
:102350001DF8A0EB0800A84214D92068C16821F438
:10236000D071C1602068416921F0010141612020E4
:1023700084F83D0084F83E00002084F83C000320EF
:10238000BDE8F0812068006836EA000004D0002033
:10239000B842D9D00020F3E70120F9E7FEE70907AA
:1023A000090E002804DB00F1E02080F800147047DB
:1023B00000F00F0000F1E02080F8141D70470000CD
:1023C00090B0FEF7F1FFFFF7B1FEFFF7CDFD2C480F
:1023D000416941F0010141614069002200F00100C2
:1023E000009005210B20FFF743F80B20FFF732F890
:1023F000FFF7F2FD244823490C2201604FF4E1313C
:10240000416000218160C160C0E904128161C16145
:10241000FFF76FFC08B172B6FEE7FFF72DFDFFF77F
:1024200071FD194A2020194C483A00902346012199
:10243000A2F1F400FEF789F9134A4020483A0090CF
:1024400023460121A2F1DC00FEF793F91C2210497A
:1024500001A8FDF7ACFF002101A800F02FF80D4CFA
:102460000B491C22E0601C3108A8FDF7A0FF0021E9
:1024700008A800F023F8206100F01BF8FEE7000038
:102480000010024000440040C80100200008014044
:10249000543000080000002001460020842900D0AC
:1024A000C81C704710B500B9012000F015FB0020D2
:1024B00010BD10B500F036FB002010BD7FB50D46F5
:1024C00004464169B0F9080081B1A16971B1FFF713
:1024D000E3FFD4E905128DE80700D4E900102B468C
:1024E000226900F022FC039004B070BDFFF7D4FF16
:1024F00003A9CDE90001208A2B4682B2D4E900105D
:1025000000F0E6FB012801D00020EDE70398EBE79F
:102510002DE9F041184C0F46054666692068001DFC
:1025200000F016FA38B9206890F82C100120884085
:10253000A1698143A161681C07D137B12168BDE859
:10254000F0410E48091D00F047BA20683544B542F5
:102550004560216805D2A068BDE8F041091D00F082
:1025600023BA6068091D00F01FFA206B854200D273
:102570002563BDE8F08100002C00002080050020CC
:102580002DE9F041054600F033FA2E4C2069401C3D
:10259000206120682C4F10B1E06940B32DE0256028
:1025A0002069012829D1002606EB860007EB800070
:1025B00000F0ECF9761C072EF6D323488C3000F09F
:1025C000E5F92148A03000F0E1F91F48B43000F0EF
:1025D000DDF91D48C83000F0D9F91B48DC3000F0A7
:1025E000D5F919488C3060601430A06005E020688F
:1025F000E96AC06A884200D82560E06A401CE0624F
:10260000E96A0120A26988401043A06101EB8100C2
:1026100007EB8000291D00F0DFF900F009FAE069FE
:1026200000280CD02068E96AC06A884207D20749AE
:102630004FF080500860BFF34F8FBFF36F8FBDE83E
:10264000F08100002C000020A404002004ED00E034
:1026500010B5044690F8510058B101280CD002285A
:102660000FD0502080F31188BFF34F8FBFF36F8FCF
:10267000FEE7206B00F0F0F92046BDE8104000F0C6
:10268000EBB910BD10484FF44061420706D0C01DA1
:102690000D4920F00700411AC1F540610B4A0023A3
:1026A0000144C2E900030839103A21F00701116022
:1026B0004B600B600B1AC0E9001393604FF00040B1
:1026C0005360D0607047000094050020780000201F
:1026D000144E154CA6F1C8074FF08058DFF84C9007
:1026E00012E000BF00F084F9F068C568281D00F012
:1026F0002FF92069401E2061E068401EE06000F074
:1027000097F92846FFF7A4FFE0680028EAD1386867
:102710000128F9D9C9F80080BFF34F8FBFF36F8F3D
:10272000F2E700006C0500202C00002004ED00E022
:102730002DE9F0479A46DDE9098481466FF00303ED
:10274000206B03EB82021044089D20F007067007FF
:1027500007D0502080F31188BFF34F8FBFF36F8FE6
:10276000FEE723180A5C83F834200A5C12B1401C8F
:102770001028F6D3002784F84370072D00D30625D0
:10278000E562C4E91157201D00F00BF904F11800AF
:1027900000F007F92461C5F107006462A061E764F5
:1027A00084F8507052464946304600F0BFF8206029
:1027B000B8F1000F01D0C8F80040BDE8F087000074
:1027C00030B5114900E011460A688242FBD34B68DC
:1027D0005C18844203D14068184448600846436846
:1027E0001C18944209D1084C103C2468A24209D01C
:1027F00052681A4442600A6812680260814200D03E
:10280000086030BD0460F9E77800002006484168A0
:10281000096829B14168C968C96849680163704796
:102820004FF0FF31FAE700002C0000200848406814
:10283000401C4FF0500080F3118804D0BFF34F8F3D
:10284000BFF36F8FFEE7BFF34F8FBFF36F8FFEE7CE
:10285000800000202DE9F0410546002700F098F99E
:10286000314E306808B9FFF70DFFF06805424BD1D3
:10287000C5B3083568070ED005F00700C0F10800A1
:102880000544680707D0502080F31188BFF34F8FAD
:10289000BFF36F8FFEE72DB37068854234D82248AE
:1028A000103001460C6801E020460C466168A942E0
:1028B00002D221680029F7D131688C4224D0076800
:1028C0002168016060680837411B10290FD9601921
:1028D000420708D0502080F31188BFF34F8FBFF319
:1028E0006F8FFEE710E041606560FFF769FF616888
:1028F0007068401A7060B268904200D2B060F068B0
:1029000001430020C4E9000100F0ACFA780707D0C9
:10291000502080F31188BFF34F8FBFF36F8FFEE716
:102920003846BDE8F08100006800002010B5031FA4
:102930004FF080741C601B1F21F001011960191FEA
:10294000024B0B60143940380A6010BD2D28000876
:10295000D0E9013201699A60D0E901235A604A68DE
:10296000824201D182684A60002202610868401EEA
:102970000860086870470000034B036003F15400CF
:1029800008608020106070475002002000F10801AC
:102990004FF0FF32C0E90112C16001610021016006
:1029A000704700210161704730B50B685A1C02D096
:1029B00000F1080202E0026904E02246546825683A
:1029C0009D42FAD953684B6099608A6051600861F2
:1029D0000168491C016030BD42684A6093688B60A1
:1029E00093685960916008610168491C01607047F3
:1029F000502080F31188BFF34F8FBFF36F8F0A49C8
:102A00004868401C486001280CD10848006810F054
:102A1000FF0F07D0502080F31188BFF34F8FBFF313
:102A20006F8FFEE7704700008000002004ED00E09B
:102A30000849486828B1401E486001D180F31188D8
:102A40007047502080F31188BFF34F8FBFF36F8F13
:102A5000FEE700008000002070B5002827D0144D4C
:102A6000A0F108046168E868014207D1502080F3B2
:102A70001188BFF34F8FBFF36F8FFEE722683AB123
:102A8000502080F31188BFF34F8FBFF36F8FFEE7A5
:102A90008143616000F07CF86068696808446860A0
:102AA0002046FFF78DFEBDE8704000F0DBB970BD39
:102AB000680000204FF0E02000210161816105499C
:102AC0004FF47A720968B1FBF2F1491E41610721A6
:102AD000016170472800002010B5020014D00F4893
:102AE000806B38B1502080F31188BFF34F8FBFF354
:102AF0006F8FFEE700F04CF800211046FFF708FD4D
:102B000000F0B0F9002807D105494FF08050086067
:102B1000BFF34F8FBFF36F8F10BD00002C0000205C
:102B200004ED00E010B586B00024039405AA04A9C2
:102B300003A80494FFF720FFDDE903010094CDE929
:102B4000011000230EA11048059A00F0EEF80F497D
:102B50000028486311D0502080F31188BFF34F8FB5
:102B6000BFF36F8F4FF0FF3008630120C8614C61E5
:102B700006B0BDE8104000F041B806B010BD00003E
:102B800049444C4500000000D12600082C000020DC
:102B90000248816B491C8163704700002C000020B3
:102BA0001448816B11B101214162704700214162DB
:102BB0008169B1FA81F1C1F11F0101EB81020E4976
:102BC00051F822306BB101EB820101F108034A6830
:102BD00052684A609A4201D152684A60D1680160E5
:102BE0007047502080F31188BFF34F8FBFF36F8F72
:102BF000FEE700002C000020A40400201CB526499C
:102C000008780190FF20087008788DF800009DF882
:102C100000009DF8002000F0F000904207D0502006
:102C200080F31188BFF34F8FBFF36F8FFEE79DF8DE
:102C300000001A4B00F0500018700720986005E063
:102C40009DF8002052008DF80020401E9DF80020C5
:102C50001206F5D49860032807D0502080F311881D
:102C6000BFF34F8FBFF36F8FFEE74FF44070986054
:102C7000019808700A48016841F470010160016818
:102C800041F070410160FFF715FF00205860FDF72B
:102C900091FA00201CBD000000E400E0800000204C
:102CA00020ED00E010B5502080F31188BFF34F8F66
:102CB000BFF36F8F00F072F818B104494FF08050E5
:102CC0000860002080F3118810BD000004ED00E0D2
:102CD0002DE9FF5F8346DDE90E87994616468A4651
:102CE0009000FFF7B7FD05001CD05420FFF7B2FDA0
:102CF000040014D00020256384F85100CDE902407F
:102D0000CDE900874B46324651465846FFF710FD45
:102D10002046FFF735FC012004B0BDE8F09F2846AF
:102D2000FFF79AFE4FF0FF30F6E7F0B585B0DDE92A
:102D30000B640A9DA6B1DCB15427009726630226D6
:102D400084F85160002604AFCDE90246CDE9005772
:102D5000FFF7EEFC2046FFF713FC049805B0F0BD2A
:102D6000502080F31188BFF34F8FBFF36F8FFEE7C2
:102D7000502080F31188BFF34F8FBFF36F8FFEE7B2
:102D80000548C16919B1806B18B100207047012056
:102D900070470220704700002C0000202DE9F04110
:102DA0002E4C0027A06B40B1206A401C2062606A54
:102DB00000B101273846BDE8F0816669761C66617E
:102DC00013D16068006838B1502080F31188BFF3D8
:102DD0004F8FBFF36F8FFEE76068A1686160A060EE
:102DE000A06A401CA062FFF711FD206BDFF8708025
:102DF000864209D36068006880B16068C068C568B1
:102E0000686886420DD220632068C06A00EB8001AA
:102E100058F821000128CAD90127C8E74FF0FF3030
:102E2000F1E7281DFFF794FDA86A18B105F1180015
:102E3000FFF78EFDE86A0121A26981401143A1617B
:102E400000EB800108EB8100291DFFF7C5FDE86A52
:102E50002168C96A8842CDD30127CBE72C00002026
:102E6000A40400202DE9F0472C4D00242746A86B30
:102E700038B1FFF7BDFDA86B401EA863A86B40B139
:102E800046E0502080F31188BFF34F8FBFF36F8F60
:102E9000FEE72969224E0120D1B3A6F1B40980468C
:102EA0003068E8B1F068C46804F11800FFF750FD1D
:102EB000201DFFF74DFDE06AAA6908FA00F11143F1
:102EC000A96100EB800109EB8100211DFFF784FD62
:102ED000E06A2968C96A8842E2D3C5F82480DFE73E
:102EE0000CB1FFF793FC2C6A44B14646FFF756FF3E
:102EF00000B16E62641EF9D100202862686A38B1A0
:102F00000849012738070860BFF34F8FBFF36F8F61
:102F1000FFF78EFD3846BDE8F08700002C0000204A
:102F20005805002004ED00E041000B0ED3F19E0295
:102F300008D950F400034FEA032323FA02F048BFF4
:102F40004042704710B500F03EF800BF499224801F
:102F5000002070476FF0004282EA200070470000B6
:102F6000C10DD1F19E0206DB4FEA002343F000437E
:102F700023FA02F07047004207D54FEA4001B1F151
:102F8000FE4F02D24FF00000704710B500F01BF862
:102F900049922480002070476FEA200070470000AB
:102FA000B0FA80F310FA03F2C3F19D030AD0D905F9
:102FB00001EB1220530638BF704700F1010008BF33
:102FC00020F0010070470EF1020E2EF0030E5EF8A5
:102FD000044B244204D44FEA4102B2F17F4F11D88E
:102FE0004FEA4003B3F17F4F0CD80ED14FEAD07CAB
:102FF000B2F17F4F0CEB4C0C0CF1020C08BF4CEB08
:10300000D17C04E04FF0080C01E04FEAD17C0CEBDE
:103010004C0324FA03F404F00704B4F1040C06D2C0
:103020000EEB840CBDE810404CF0010C6047DFE86B
:103030000CF0070802024FF00040A0F5800010BD20
:103040000846420018BFD2F1807288BF00F00040ED
:1030500010BD0000B430000845200008000000004A
:1030600000000000800000000000000000000000E0
:10307000A4300008E9200008000000000000000063
:1030800080000000000000000000000000000000C0
:103090000000000001020304060708090000000008
:1030A000010203045461736B5F73656E736F723159
:1030B000000000005461736B5F73656E736F720084
:1030C000E0300008000000208C000000280100080B
:1030D0006C3100088C0000206C17000044010008CF
:1030E00000000000000000000000000000000000E0
:1030F00000000000000000000000000001000000CF
:1031000010000000000000000024F4000000000097
:1031100000000000000000000000000000000000AF
:10312000000000000000000000000000000000009F
:10313000000000000000000000000000000000008F
:10314000000000000000000000000000000000007F
:10315000000000000000000000000000000000006F
:0C31600000000000AAAAAAAA00000000BB
:04000005080000ED02
:00000001FF
